{
  "transactions": [
    {
      "hash": "0xd2b2a7857d7b694aa57c57d4f4469886a20fd8f49d39c0a9bfb1d58ea7ce959b",
      "transactionType": "CALL",
      "contractName": null,
      "contractAddress": "0x94cf90a01e15d092b089fa9c828d7cda6991fa34",
      "function": "mintNFT(address,string)",
      "arguments": [
        "0x8eD225F24b1200EFD2681D9df7bA04964967a6d6",
        "https://www.google.com/imgres?q=https%3A%2F%2F42%20logo&imgurl=https%3A%2F%2Fupload.wikimedia.org%2Fwikipedia%2Fcommons%2Fthumb%2F8%2F8d%2F42_Logo.svg%2F2048px-42_Logo.svg.png&imgrefurl=https%3A%2F%2Ffr.wikipedia.org%2Fwiki%2FFichier%3A42_Logo.svg&docid=413YDHox0NOQsM&tbnid=fiTzoJmlGrwPnM&vet=12ahUKEwjAkv6zvvmQAxVtAvsDHW8JK9gQM3oECBoQAA..i&w=2048&h=2048&hcb=2&ved=2ahUKEwjAkv6zvvmQAxVtAvsDHW8JK9gQM3oECBoQAA"
      ],
      "transaction": {
        "from": "0x8ed225f24b1200efd2681d9df7ba04964967a6d6",
        "to": "0x94cf90a01e15d092b089fa9c828d7cda6991fa34",
        "gas": "0x8a30e",
        "value": "0x0",
        "input": "0xeacabe140000000000000000000000008ed225f24b1200efd2681d9df7ba04964967a6d60000000000000000000000000000000000000000000000000000000000000040000000000000000000000000000000000000000000000000000000000000019968747470733a2f2f7777772e676f6f676c652e636f6d2f696d677265733f713d687474707325334125324625324634322532306c6f676f26696d6775726c3d687474707325334125324625324675706c6f61642e77696b696d656469612e6f726725324677696b697065646961253246636f6d6d6f6e732532467468756d6225324638253246386425324634325f4c6f676f2e7376672532463230343870782d34325f4c6f676f2e7376672e706e6726696d6772656675726c3d687474707325334125324625324666722e77696b6970656469612e6f726725324677696b692532464669636869657225334134325f4c6f676f2e73766726646f6369643d3431335944486f78304e4f51734d2674626e69643d6669547a6f4a6d6c477277506e4d267665743d31326168554b45776a416b76367a76766d5141785674417673444857384a4b3967514d336f4543426f5141412e2e6926773d3230343826683d32303438266863623d32267665643d326168554b45776a416b76367a76766d5141785674417673444857384a4b3967514d336f4543426f51414100000000000000",
        "nonce": "0x12",
        "chainId": "0xaa36a7"
      },
      "additionalContracts": [],
      "isFixedGasLimit": false
    }
  ],
  "receipts": [
    {
      "status": "0x1",
      "cumulativeGasUsed": "0x60b7ab",
      "logs": [
        {
          "address": "0x94cf90a01e15d092b089fa9c828d7cda6991fa34",
          "topics": [
            "0xddf252ad1be2c89b69c2b068fc378daa952ba7f163c4a11628f55a4df523b3ef",
            "0x0000000000000000000000000000000000000000000000000000000000000000",
            "0x0000000000000000000000008ed225f24b1200efd2681d9df7ba04964967a6d6",
            "0x0000000000000000000000000000000000000000000000000000000000000000"
          ],
          "data": "0x",
          "blockHash": "0xcae0bd0ef48d2b3013661aa624b620eaafb6ffeb7a5b3d32c33f582f1c79c608",
          "blockNumber": "0x933c53",
          "blockTimestamp": "0x691b3df8",
          "transactionHash": "0xd2b2a7857d7b694aa57c57d4f4469886a20fd8f49d39c0a9bfb1d58ea7ce959b",
          "transactionIndex": "0x2f",
          "logIndex": "0x30",
          "removed": false
        }
      ],
      "logsBloom": "0x00000000000000000000000000000000800000000000000000000000000000000000000000000000000000000000800000000000000000000000000000000400000000000000000010000008000000000000000000000000000000000000000000000000020000000000000000000800000000040000000000000010000000000000000000000000000000000000000000000000000040000000000000000000000000000000000000000000000000000000000000000000000000000000000000000002000000000000000000000000000000000000000000000000000020000000000000000000000000000000000000000000000000000000000000000000",
      "type": "0x2",
      "transactionHash": "0xd2b2a7857d7b694aa57c57d4f4469886a20fd8f49d39c0a9bfb1d58ea7ce959b",
      "transactionIndex": "0x2f",
      "blockHash": "0xcae0bd0ef48d2b3013661aa624b620eaafb6ffeb7a5b3d32c33f582f1c79c608",
      "blockNumber": "0x933c53",
      "gasUsed": "0x640c4",
      "effectiveGasPrice": "0xc38c",
      "from": "0x8ed225f24b1200efd2681d9df7ba04964967a6d6",
      "to": "0x94cf90a01e15d092b089fa9c828d7cda6991fa34",
      "contractAddress": null
    }
  ],
  "libraries": [],
  "pending": [],
  "returns": {},
  "timestamp": 1763393017996,
  "chain": 11155111,
  "commit": "d9c3bf7"
}